{
  "contractName": "FIR",
  "abi": [
    {
      "constant": true,
      "inputs": [
        {
          "name": "",
          "type": "uint256"
        }
      ],
      "name": "idToFir",
      "outputs": [
        {
          "name": "",
          "type": "string"
        }
      ],
      "payable": false,
      "stateMutability": "view",
      "type": "function"
    },
    {
      "constant": true,
      "inputs": [],
      "name": "totalFirsCount",
      "outputs": [
        {
          "name": "",
          "type": "uint256"
        }
      ],
      "payable": false,
      "stateMutability": "view",
      "type": "function"
    },
    {
      "constant": false,
      "inputs": [
        {
          "name": "fir_data",
          "type": "string"
        }
      ],
      "name": "createFir",
      "outputs": [
        {
          "name": "",
          "type": "uint256"
        }
      ],
      "payable": false,
      "stateMutability": "nonpayable",
      "type": "function"
    },
    {
      "constant": true,
      "inputs": [
        {
          "name": "fir_id",
          "type": "uint256"
        }
      ],
      "name": "showFir",
      "outputs": [
        {
          "name": "",
          "type": "string"
        }
      ],
      "payable": false,
      "stateMutability": "view",
      "type": "function"
    }
  ],
  "bytecode": "0x608060405234801561001057600080fd5b506104e6806100206000396000f300608060405260043610610062576000357c0100000000000000000000000000000000000000000000000000000000900463ffffffff16806303db679714610067578063278288b41461010d5780638d7340be146101b3578063af4a0f9514610230575b600080fd5b34801561007357600080fd5b506100926004803603810190808035906020019092919050505061025b565b6040518080602001828103825283818151815260200191508051906020019080838360005b838110156100d25780820151818401526020810190506100b7565b50505050905090810190601f1680156100ff5780820380516001836020036101000a031916815260200191505b509250505060405180910390f35b34801561011957600080fd5b506101386004803603810190808035906020019092919050505061030b565b6040518080602001828103825283818151815260200191508051906020019080838360005b8381101561017857808201518184015260208101905061015d565b50505050905090810190601f1680156101a55780820380516001836020036101000a031916815260200191505b509250505060405180910390f35b3480156101bf57600080fd5b5061021a600480360381019080803590602001908201803590602001908080601f01602080910402602001604051908101604052809392919081815260200183838082843782019150505050505091929192905050506103c5565b6040518082815260200191505060405180910390f35b34801561023c57600080fd5b5061024561040b565b6040518082815260200191505060405180910390f35b60006020528060005260406000206000915090508054600181600116156101000203166002900480601f0160208091040260200160405190810160405280929190818152602001828054600181600116156101000203166002900480156103035780601f106102d857610100808354040283529160200191610303565b820191906000526020600020905b8154815290600101906020018083116102e657829003601f168201915b505050505081565b606060008060008481526020019081526020016000209050808054600181600116156101000203166002900480601f0160208091040260200160405190810160405280929190818152602001828054600181600116156101000203166002900480156103b85780601f1061038d576101008083540402835291602001916103b8565b820191906000526020600020905b81548152906001019060200180831161039b57829003601f168201915b5050505050915050919050565b60008060016000815480929190600101919050559050826000808381526020019081526020016000209080519060200190610401929190610415565b5080915050919050565b6000600154905090565b828054600181600116156101000203166002900490600052602060002090601f016020900481019282601f1061045657805160ff1916838001178555610484565b82800160010185558215610484579182015b82811115610483578251825591602001919060010190610468565b5b5090506104919190610495565b5090565b6104b791905b808211156104b357600081600090555060010161049b565b5090565b905600a165627a7a723058209f806ec1bfd63b68fdf9f41eacda2aeb9031d4c906b8321283b5dd901065c5fd0029",
  "source": "pragma solidity ^0.4.18;\n\ncontract FIR {\n\n  // string Fir;\n\n  mapping (uint => string) public idToFir;\n  uint totalFirs;\n\n  function totalFirsCount() view public returns (uint) {\n    return totalFirs;\n  }\n\n  function createFir(string fir_data) public returns (uint) {\n\n    uint fir_id = totalFirs++;\n    \n    idToFir[fir_id] = fir_data;\n\n    return fir_id;\n  } \n\n  function showFir(uint fir_id) view public returns (string) {\n    \n    string storage t_fir = idToFir[fir_id];\n    \n    return (t_fir);\n  } \n}",
  "sourcePath": "/Users/adeshgautam/Desktop/docs/ang-eth/contracts/fir.sol",
  "compiler": {
    "name": "solc",
    "version": "0.4.24+commit.e67f0147.Emscripten.clang"
  },
  "schemaVersion": "2.0.1",
  "updatedAt": "2018-10-12T02:41:13.691Z"
}