{
  "contractName": "FIRIPFS",
  "abi": [
    {
      "constant": true,
      "inputs": [
        {
          "name": "",
          "type": "uint256"
        }
      ],
      "name": "idToFirHash",
      "outputs": [
        {
          "name": "",
          "type": "string"
        }
      ],
      "payable": false,
      "stateMutability": "view",
      "type": "function"
    },
    {
      "constant": true,
      "inputs": [],
      "name": "totalFirsCount",
      "outputs": [
        {
          "name": "",
          "type": "uint256"
        }
      ],
      "payable": false,
      "stateMutability": "view",
      "type": "function"
    },
    {
      "constant": false,
      "inputs": [
        {
          "name": "firHash",
          "type": "string"
        }
      ],
      "name": "createFir",
      "outputs": [
        {
          "name": "",
          "type": "uint256"
        }
      ],
      "payable": false,
      "stateMutability": "nonpayable",
      "type": "function"
    },
    {
      "constant": true,
      "inputs": [
        {
          "name": "firId",
          "type": "uint256"
        }
      ],
      "name": "showFir",
      "outputs": [
        {
          "name": "",
          "type": "string"
        }
      ],
      "payable": false,
      "stateMutability": "view",
      "type": "function"
    }
  ],
  "bytecode": "0x608060405234801561001057600080fd5b506104e6806100206000396000f300608060405260043610610062576000357c0100000000000000000000000000000000000000000000000000000000900463ffffffff168063278288b4146100675780638d7340be1461010d578063af4a0f951461018a578063da3c8cbf146101b5575b600080fd5b34801561007357600080fd5b506100926004803603810190808035906020019092919050505061025b565b6040518080602001828103825283818151815260200191508051906020019080838360005b838110156100d25780820151818401526020810190506100b7565b50505050905090810190601f1680156100ff5780820380516001836020036101000a031916815260200191505b509250505060405180910390f35b34801561011957600080fd5b50610174600480360381019080803590602001908201803590602001908080601f0160208091040260200160405190810160405280939291908181526020018383808284378201915050505050509192919290505050610315565b6040518082815260200191505060405180910390f35b34801561019657600080fd5b5061019f61035b565b6040518082815260200191505060405180910390f35b3480156101c157600080fd5b506101e060048036038101908080359060200190929190505050610365565b6040518080602001828103825283818151815260200191508051906020019080838360005b83811015610220578082015181840152602081019050610205565b50505050905090810190601f16801561024d5780820380516001836020036101000a031916815260200191505b509250505060405180910390f35b606060008060008481526020019081526020016000209050808054600181600116156101000203166002900480601f0160208091040260200160405190810160405280929190818152602001828054600181600116156101000203166002900480156103085780601f106102dd57610100808354040283529160200191610308565b820191906000526020600020905b8154815290600101906020018083116102eb57829003601f168201915b5050505050915050919050565b60008060016000815480929190600101919050559050826000808381526020019081526020016000209080519060200190610351929190610415565b5080915050919050565b6000600154905090565b60006020528060005260406000206000915090508054600181600116156101000203166002900480601f01602080910402602001604051908101604052809291908181526020018280546001816001161561010002031660029004801561040d5780601f106103e25761010080835404028352916020019161040d565b820191906000526020600020905b8154815290600101906020018083116103f057829003601f168201915b505050505081565b828054600181600116156101000203166002900490600052602060002090601f016020900481019282601f1061045657805160ff1916838001178555610484565b82800160010185558215610484579182015b82811115610483578251825591602001919060010190610468565b5b5090506104919190610495565b5090565b6104b791905b808211156104b357600081600090555060010161049b565b5090565b905600a165627a7a72305820b64d3fedcd62a76ff86dabf116016fe19f3272ca8d2d54e9f72137a30c72b1810029",
  "source": "pragma solidity ^0.4.18;\n\ncontract FIRIPFS {\n\n  mapping (uint => string) public idToFirHash;\n  uint totalFirHash;\n\n  function totalFirsCount() view public returns (uint) {\n    return totalFirHash;\n  }\n\n  function createFir(string firHash) public returns (uint) {\n    uint firId = totalFirHash++;\n    idToFirHash[firId] = firHash;\n    return firId;\n  } \n\n  function showFir(uint firId) view public returns (string) {\n    string storage firHash = idToFirHash[firId];\n    return (firHash);\n  } \n}",
  "sourcePath": "/Users/adeshgautam/Desktop/docs/ang-eth/contracts/firipfs.sol",
  "compiler": {
    "name": "solc",
    "version": "0.4.24+commit.e67f0147.Emscripten.clang"
  },
  "schemaVersion": "2.0.1",
  "updatedAt": "2018-10-13T11:41:35.132Z"
}